:020000040800F2
:1000000000500020FD1900087D1800088318000822
:10001000891800088F1800089518000800000000D3
:100020000000000000000000000000009B18000815
:10003000A718000800000000B3180008BF18000847
:10004000451A0008451A0008451A0008451A000814
:10005000451A0008451A0008451A0008451A000804
:10006000451A0008451A0008451A0008451A0008F4
:10007000451A0008451A0008451A0008451A0008E4
:10008000451A0008451A0008451A0008451A0008D4
:10009000451A0008451A0008451A0008451A0008C4
:1000A000451A0008451A0008451A0008451A0008B4
:1000B000CD180008451A0008451A0008451A00081E
:1000C000451A0008451A0008451A0008451A000894
:1000D000451A0008451A0008451A0008451A000884
:1000E000451A0008451A0008451A000800000000DB
:1000F0000000000000000000000000000000000000
:0C01000000000000000000005FF808F1A3
:10010C0010B5054C237833B9044B13B10448AFF345
:10011C0000800123237010BD94000020000000001B
:10012C00F042000808B5034B1BB103490348AFF379
:10013C00008008BD0000000098000020F04200087C
:10014C0080B483B000AF7860044A7B68012142F828
:10015C00231000BF0C37BD4680BC7047080100203F
:10016C0080B483B000AF7860094A7B6852F82330C2
:10017C00012B06D1064A7B68002142F8231001238B
:10018C0000E0002318460C37BD4680BC704700BF0A
:10019C000801002080B582B000AF00237B607EE0B8
:1001AC00434A7B6852F8232042497B6841F823205C
:1001BC00414A7B6852F823203D497B6841F8232053
:1001CC003E4A7B6852F823203D497B6831F8133056
:1001DC001946104601F04AFF03461946364A7B6819
:1001EC0042F82310344A7B6852F8232030497B684C
:1001FC0051F823309A424FD12D4A7B6852F8232074
:10020C002C497B6851F823309A4245D12D4A7B68A2
:10021C0052F8232027497B6851F823309A4216D094
:10022C00244A7B6852F8232026497B6841F8232016
:10023C00244A7B6852F82330002B2DD1224A7B684C
:10024C00642142F823107868FFF77AFF24E01D4AF6
:10025C007B6852F82330002B1ED11B4A7B6852F866
:10026C002330002B18DD184A7B6852F823305A1EB5
:10027C0015497B6841F82320134A7B6852F82330D8
:10028C00002B09D1114A7B68012142F823100E4A38
:10029C007B68642142F823107B6801337B607B68A8
:1002AC00032B7FF77DAF00BF00BF0837BD4680BD75
:1002BC00E800002018010020D800002000000020D9
:1002CC0010000020C8000020F800002028010020A9
:1002DC0080B586B002AF0346FB71FB7923F00F03A8
:1002EC00FB73FB791B01BB73FB7B43F00C03DBB291
:1002FC003B72FB7B43F00803DBB27B72BB7B43F0AE
:10030C000C03DBB2BB72BB7B43F00803DBB2FB72AA
:10031C0007F108026423009304234221034802F0EE
:10032C0031F800BF1037BD4680BD00BF380100203A
:10033C0080B586B002AF0346FB71FB7923F00F0347
:10034C00FB73FB791B01BB73FB7B43F00D03DBB22F
:10035C003B72FB7B43F00903DBB27B72BB7B43F04C
:10036C000D03DBB2BB72BB7B43F00903DBB2FB7248
:10037C0007F108026423009304234221034802F08E
:10038C0001F800BF1037BD4680BD00BF380100200A
:10039C0080B500AF3320FFF79BFF3220FFF798FFAB
:1003AC00322001F0ADFB2820FFF792FF322001F044
:1003BC00A7FB0120FFF78CFF322001F0A1FB0620E8
:1003CC00FFF786FF322001F09BFB0C20FFF780FF2C
:1003DC00322001F095FB0220FFF77AFF322001F06A
:1003EC008FFB8020FFF774FF00BF80BD80B582B00B
:1003FC0000AF786006E07B685A1C7A601B78184660
:10040C00FFF796FF7B681B78002BF4D100BF00BF71
:10041C000837BD4680BD80B500AF0120FFF758FFFF
:10042C0000BF80BD80B584B000AF786039607B6858
:10043C00012B08D17B68DAB23B68DBB21344DBB228
:10044C007F33FB7308E03B68DBB24033DBB25BB25B
:10045C0063F07F035BB2FB73FB7B1846FFF738FF3F
:10046C0000BF1037BD4680BD80B500AF01F0E6FA85
:10047C0000F036F800F0EAF800F09CF800F06CF8A8
:10048C00114802F021FF00F0B5FE012200210F48B7
:10049C0000F0F6FE012200210D4800F0F1FE0122D1
:1004AC0000210C4800F0ECFE012200210A4800F06B
:1004BC00E7FE01220021094800F0E2FE01F046FAB5
:1004CC0001F09CF8FCE700BF8C010020D11600085D
:1004DC00A10100084D0D00087D070008F509000872
:1004EC0080B590B000AF07F1180328220021184600
:1004FC0003F0B6FA3B1D00221A605A609A60DA606B
:10050C001A610223BB610123BB621023FB6200232F
:10051C007B6307F11803184602F08CFA0346002B94
:10052C0001D000F01FF90F237B600023BB60002378
:10053C00FB6000233B6100237B613B1D00211846BF
:10054C0002F0F8FC0346002B01D000F00BF900BFC1
:10055C004037BD4680BD000080B500AF124B134A3A
:10056C001A60114B124A5A600F4B00229A600E4BC4
:10057C000022DA600C4B4FF480421A610A4B0022C5
:10058C005A61094B00229A61074B0022DA61064B33
:10059C0000221A62044801F0B1FD0346002B01D081
:1005AC0000F0E0F800BF80BD38010020005400408E
:1005BC00A086010080B586B000AF07F108030022C9
:1005CC001A605A609A60DA603B4600221A605A60E0
:1005DC001D4B4FF080421A601B4B41F63F725A6024
:1005EC00194B00229A60184B0922DA60164B002234
:1005FC001A61154B00229A61134802F015FE03464E
:10060C00002B01D000F0AEF84FF48053BB6007F123
:10061C00080319460C4802F099FF0346002B01D041
:10062C0000F0A0F800233B6000237B603B4619469A
:10063C00054803F07BF90346002B01D000F092F83B
:10064C0000BF1837BD4680BD8C01002080B588B036
:10065C0000AF07F1100300221A605A609A60DA604A
:10066C00374B9B69364A43F008039361344B9B69C3
:10067C0003F00803FB60FB68314B9B69304A43F085
:10068C00100393612E4B9B6903F01003BB60BB6896
:10069C002B4B9B692A4A43F004039361284B9B69BB
:1006AC0003F004037B607B6800228021254801F065
:1006BC00F4FC00224FF44071234801F0EEFC0022C0
:1006CC004021224801F0E9FC4FF487633B61002391
:1006DC007B610123BB6107F1100319461B4801F034
:1006EC0041FB80233B6101237B610023BB6102231F
:1006FC00FB6107F110031946124801F033FB4FF46C
:10070C0040733B6101237B610023BB610223FB61CE
:10071C0007F1100319460C4801F024FB40233B6100
:10072C0001237B610023BB610223FB6107F11003F2
:10073C001946064801F016FB00BF2037BD4680BDA8
:10074C00001002400010014000080140000C014064
:10075C0080B582B000AF786000F030FF00BF083782
:10076C00BD4680BD80B400AF72B600BFFEE700008E
:10077C0080B500AF904B1B68653B032B00F21081DA
:10078C0001A252F823F000BFA507000827080008B3
:10079C00A70800082F09000801224FF48071874830
:1007AC0001F07BFC01224FF40071844801F075FCD0
:1007BC0001228021824801F070FC002240218148F6
:1007CC0001F06BFC0120FFF7CBFC0346002B07D09C
:1007DC00794B66221A604FF4FA61022000F036FF62
:1007EC000220FFF7BDFC0346002B00F0DB80724BB0
:1007FC0001221A60744B1B68744A1360744B1B689B
:10080C004FF47A7202FB03F31946002000F01EFF2E
:10081C000A21012000F01AFFC4E001224FF480717C
:10082C00664801F03AFC01224FF40071634801F074
:10083C0034FC00228021624801F02FFC012240216F
:10084C00604801F02AFC022000F028FF0346002B30
:10085C0006D0594B67221A605E495F4801F0B0F828
:10086C000220FFF77DFC0346002B00F09D80524BCD
:10087C0002221A60594B1B684FF47A7202FB03F385
:10088C001946002000F0E2FE544B1B684F4A1360DF
:10089C000A21012000F0DAFE86E001224FF480717B
:1008AC00464801F0FAFB00224FF40071434801F076
:1008BC00F4FB01228021424801F0EFFB0122402190
:1008CC00404801F0EAFB0120FFF74AFC0346002BED
:1008DC000BD0394B68221A604FF4FA61022000F0F9
:1008EC00B5FE3F493C4801F06BF80220FFF738FC9D
:1008FC000346002B5AD0304B03221A60344B1B6832
:10090C004FF47A7202FB03F31946002000F09EFEAE
:10091C002F4B1B682D4A13600A21012000F096FE14
:10092C0044E000224FF48071244801F0B6FB012210
:10093C004FF40071214801F0B0FB012280212048C6
:10094C0001F0ABFB012240211E4801F0A6FB022066
:10095C0000F0A4FE0346002B06D0174B65221A604C
:10096C0020491D4801F02CF80220FFF7F9FB034643
:10097C00002B1DD0104B04221A60184B1B684FF42F
:10098C007A7202FB03F31946002000F05FFE134B52
:10099C001B680E4A13600A21012000F057FE07E085
:1009AC0000BF06E000BF04E000BF02E000BF00E0B3
:1009BC0000BF00BF80BD00BFB00000200008014098
:1009CC0000100140000C014018000020B400002071
:1009DC002000002008430008144300081C000020DD
:1009EC00204300082C43000880B500AFAF4B1B68B8
:1009FC00CB2B00F0F180CB2B00F34F81C92B02D015
:100A0C00CA2B79D049E1002000F048FE0346002BA8
:100A1C0015D0FA21002000F019FE4FF48071A44883
:100A2C0001F053FB4FF40071A14801F04EFB802103
:100A3C00A04801F04AFB40219F4801F046FB0120F1
:100A4C0000F02CFE0346002B0AD09C4B1B68194669
:100A5C009B4800F093FF4FF47A71012000F0F6FDF3
:100A6C000120FFF77DFB0346002B0ED0934B1B6838
:100A7C005A1C944B83FB02135911D317CB1A6421C4
:100A8C0001FB03F3D31A8D4A13600220FFF768FBB6
:100A9C000346002B03D0894B1B688B4A1360002044
:100AAC00FFF75EFB0346002B00F0F9807F4BCA2258
:100ABC001A60FA21002000F0C9FD844B1B687F4AA4
:100ACC0013600A21012000F0C1FD00224FF4807157
:100ADC00774801F0E2FA00224FF40071744801F0FB
:100AEC00DCFA00228021734801F0D7FA0022402161
:100AFC00714801F0D2FAD2E0002000F0CFFD03469D
:100B0C00002B0CD0FA21002000F0A0FD4FF4007156
:100B1C00674801F0DAFA4021674801F0D6FA012063
:100B2C0000F0BCFD0346002B0AD0644B1B68194631
:100B3C00674800F023FF4FF47A71012000F086FD26
:100B4C000120FFF70DFB0346002B0ED05B4B1B68FF
:100B5C005A1C5C4B83FB02135911D317CB1A64211B
:100B6C0001FB03F3D31A554A13600220FFF7F8FA7E
:100B7C000346002B03D0514B1B68544A13600020D2
:100B8C00FFF7EEFA0346002B00F08B80474BCB228D
:100B9C001A60FA21002000F059FD4E4B1B68474AA1
:100BAC0013600A21012000F051FD00224FF48071E6
:100BBC003F4801F072FA00224FF400713C4801F0FA
:100BCC006CFA002280213B4801F067FA0022402198
:100BDC00394801F062FA64E0002000F05FFD034642
:100BEC00002B0CD0FA21002000F030FD4FF4807166
:100BFC002F4801F06AFA80212E4801F066FA012094
:100C0C0000F04CFD0346002B0AD02C4B1B681946F8
:100C1C00314800F0B3FE4FF47A71012000F016FD5C
:100C2C000120FFF79DFA0346002B0ED0234B1B68C7
:100C3C005A1C244B83FB02135911D317CB1A642172
:100C4C0001FB03F3D31A1D4A13600220FFF788FA45
:100C5C000346002B03D0194B1B681E4A136000205F
:100C6C00FFF77EFA0346002B1DD000F037F80F4B30
:100C7C0001221A60174B1B684FF47A7202FB03F3C4
:100C8C001946002000F0E2FC0F4B1B680B4A136066
:100C9C000A21012000F0DAFC05E000BF04E000BFEF
:100CAC0002E000BF00E000BF00BF80BDB00000202C
:100CBC000008014000100140000C0140B40000206D
:100CCC00384300081F85EB51180000201C00002041
:100CDC0044430008200000205043000880B400AFBB
:100CEC00144B1A68144B1B681A44144B1B689A4219
:100CFC000CDA124B1A68104B19680E4B1B680B441C
:100D0C00D21A0C4B1B6813440A4A1360094B1A681D
:100D1C00094B1B681A44094B1B689A4206DD054BAC
:100D2C001A68054B1B681344044A136000BFBD4688
:100D3C0080BC7047200000201C0000201800002000
:100D4C0080B500AF8F4B1B68042B00F22D8201A2E3
:100D5C0052F823F0750D0008A10D00088F0E000845
:100D6C00C10F0008B7100008864B01221A60864B91
:100D7C001B684FF47A7202FB03F31946002000F053
:100D8C0065FC824B1B68824A13600A21012000F02B
:100D9C005DFC12E201224FF480717E4801F07DF976
:100DAC0001224FF400717B4801F077F90122802178
:100DBC00794801F072F900224021784801F06DF970
:100DCC00012000F06BFC0346002B0DD0704B1B6810
:100DDC005A1E6F490A601946714800F0CFFD4FF456
:100DEC007A71012000F032FC002000F057FC034621
:100DFC00002B0CD0634B02221A606A4B1B684FF419
:100E0C007A7202FB03F31946002000F01FFC03204A
:100E1C00FFF7A6F90346002B06D05A4B65221A6041
:100E2C006149624800F0CCFD0020FFF799F90346B8
:100E3C00002B00F0BB81534BC9221A60FA21002011
:100E4C0000F004FC514B1B68514A13600A2101202D
:100E5C0000F0FCFB00224FF480714E4801F01DF9AC
:100E6C0000224FF400714B4801F017F90022802149
:100E7C00494801F012F900224021484801F00DF9CF
:100E8C0094E101224FF48071424801F006F90122ED
:100E9C004FF400713F4801F000F9002280213E48D8
:100EAC0001F0FBF8012240213C4801F0F6F801204A
:100EBC0000F0F4FB0346002B0DD0354B1B685A1E7B
:100ECC0033490A6019463A4800F058FD4FF47A71DC
:100EDC00012000F0BBFB002000F0E0FB0346002BE0
:100EEC0010D0284B03221A60274B1B684FF47A72E0
:100EFC0002FB03F31946002000F0A8FB224B1B68F1
:100F0C00234A13600320FFF72BF90346002B0BD069
:100F1C001C4B66221A602449244800F051FD4FF402
:100F2C00FA61012000F092FB0020FFF719F903464B
:100F3C00002B00F03D81134BC9221A60FA210020CE
:100F4C0000F084FB114B1B68114A13600A2101202D
:100F5C0000F07CFB00224FF480710E4801F09DF8EC
:100F6C0000224FF400710B4801F097F80022802109
:100F7C00094801F092F800224021084801F08DF850
:100F8C0016E100BFB0000020200000201800002057
:100F9C00B40000200008014000100140000C01408A
:100FAC005C4300081C0000206C43000878430008D8
:100FBC008443000801224FF48071814801F06DF8E0
:100FCC0000224FF400717E4801F067F80122802165
:100FDC007C4801F062F8012240217B4801F05DF869
:100FEC00012000F05BFB0346002B0DD0774B1B68F8
:100FFC005A1E76490A601946754800F0BFFC4FF43A
:10100C007A71012000F022FB002000F047FB034620
:10101C00002B10D06F4B04221A606F4B1B684FF4DF
:10102C007A7202FB03F31946002000F00FFB6A4BA7
:10103C001B68664A13600320FFF792F80346002BE7
:10104C0006D0644B67221A606449654800F0B8FC0E
:10105C000020FFF785F80346002B00F0AB805D4BBA
:10106C00C9221A60FA21002000F0F0FA5D4B1B68CF
:10107C00564A13600A21012000F0E8FA00224FF4CE
:10108C0080714F4801F009F800224FF400714C4870
:10109C0001F003F8002280214A4800F0FEFF0022F4
:1010AC004021494800F0F9FF84E000224FF48071A0
:1010BC00434800F0F2FF01224FF40071404800F069
:1010CC00ECFF012280213F4800F0E7FF0122402184
:1010DC003D4800F0E2FF012000F0E0FA0346002B4F
:1010EC000DD03A4B1B685A1E38490A6019463E48C7
:1010FC0000F044FC4FF47A71012000F0A7FA0020B4
:10110C0000F0CCFA0346002B10D0324B01221A60AF
:10111C00344B1B682D4A1360344B1B684FF47A72A6
:10112C0002FB03F31946002000F090FA0320FFF7AE
:10113C0017F80346002B0BD0264B68221A602C495B
:10114C00274800F03DFC4FF4FA61012000F07EFAD4
:10115C000020FFF705F80346002B2DD01D4BC922AC
:10116C001A60FA21002000F071FA1E4B1B68174A16
:10117C0013600A21012000F069FA00224FF48071FB
:10118C000F4800F08AFF00224FF400710C4800F069
:10119C0084FF002280210B4800F07FFF00224021B9
:1011AC00094800F07AFF07E000BF06E000BF04E04A
:1011BC0000BF02E000BF00E000BF00BF80BD00BF69
:1011CC000008014000100140000C0140B400002058
:1011DC0094430008B00000201C000020A443000829
:1011EC007843000818000020B043000820000020BD
:1011FC00C043000880B483B000AF00237B6033E0B1
:10120C001E497A6813469B0013449B000B44002232
:10121C001A601A497A6813469B0013449B000B44CE
:10122C00043300221A6015497A6813469B00134454
:10123C009B000B44083300221A6010497A6813464D
:10124C009B0013449B000B440C3300221A700B4977
:10125C007A6813469B0013449B000B441033002206
:10126C001A607B6801337B607B68272BC8DD00BF6D
:10127C0000BF0C37BD4680BC704700BFD4010020B6
:10128C00B0B48BB000AFF860B9607A6000237B62B9
:10129C000023BB61764B1B680133754A1360744B9A
:1012AC001B68002B04D1724B1B680133704A13600E
:1012BC006F4B1B687B6100233B62D1E06D493A6A3E
:1012CC0013469B0013449B000B441B68002B42D11C
:1012DC0068493A6A13469B0013449B000B44FA6816
:1012EC001A60BA687B6AD11A62483A6A13469B0044
:1012FC0013449B000344043319605E493A6A134655
:10130C009B0013449B000B4408337A681A605949BC
:10131C003A6A13469B0013449B000B4404331B682E
:10132C00002B0CBF01230023DBB2184651493A6A4B
:10133C0013469B0013449B000B440C3302461A705B
:10134C004C493A6A13469B0013449B000B441033E0
:10135C007A691A6088E047493A6A13469B0013443D
:10136C009B000B4404331B687A6A13447B62BA6893
:10137C007B6A9A4271D2BA687B6AD11A3D483A6A42
:10138C0013469B0013449B00034404331B680B441B
:10139C00BB617A6ABB68D11A36483A6A13469B001D
:1013AC0013449B000344043319602723FB6117E0AB
:1013BC00FB695A1E2F48F9690B469B000B449B0096
:1013CC0018442C4913469B0013449B000B440446C1
:1013DC001D460FCD0FC42B682360FB69013BFB61DD
:1013EC00FA693B6A9A42E3DC22493A6A13469B004B
:1013FC0013449B000B44FA681A601E493A6A134660
:10140C009B0013449B000B4408337A681A601949FB
:10141C003A6A13469B0013449B000B440433BA698D
:10142C001A60BB69002B0CBF01230023DBB21846EA
:10143C0010493A6A13469B0013449B000B440C332F
:10144C0002461A700B493A6A13469B0013449B00E0
:10145C000B4410337A691A6006E03B6A01333B6235
:10146C003B6A272B7FF72AAF2C37BD46B0BC7047A1
:10147C00B8000020D4010020B0B485B000AF786073
:10148C007B68002B00F093800023FB608AE04A49C4
:10149C00FA6813469B0013449B000B4410331B68E3
:1014AC007A689A427BD1FB68262B28DCFB685A1C95
:1014BC00414913469B0013449B000B441B68002BB3
:1014CC001DD0FB685A1C3C4913469B0013449B00DF
:1014DC000B44043319683848FA6813469B001344CC
:1014EC009B00034404331B68FA68013219443248E8
:1014FC0013469B0013449B00034404331960FB68A0
:10150C00BB6017E0BB685A1C2B48B9680B469B00A4
:10151C000B449B001844284913469B0013449B0022
:10152C000B4404461D460FCD0FC42B682360BB68CB
:10153C000133BB60BB68262BE4DD1F49BA68134638
:10154C009B0013449B000B4400221A601A49BA6892
:10155C0013469B0013449B000B44083300221A6073
:10156C001549BA6813469B0013449B000B44043383
:10157C0000221A601049BA6813469B0013449B0062
:10158C000B440C3300221A700B49BA6813469B00AB
:10159C0013449B000B44103300221A6008E0FB68D4
:1015AC000133FB60FB68272B7FF771AF00E000BFB6
:1015BC001437BD46B0BC7047D401002080B400AFD6
:1015CC000D4B1B68002B13D00B4B1B7B002B0FD12F
:1015DC00094B5B68002B04D0074B5B68013B064A48
:1015EC005360054B5B68002B02D1034B01221A732D
:1015FC0000BFBD4680BC7047D4010020B0B586B09A
:10160C0000AF114B1B7B002B19D00F4B1B6898475D
:10161C000D4B00221A730C4B3C1D1D460FCD0FC4F5
:10162C002B6823607B691846FFF726FFFB68002BAD
:10163C0005D07B68F968FA681846FFF721FE00BFF1
:10164C001837BD46B0BD00BFD401002080B483B0B4
:10165C0000AF786039607B68002B13DB7B68132B41
:10166C0010DC0B4A7B68002142F823103B68094AC6
:10167C0082FB03129210DB17D21A07497B6841F8E0
:10168C00232000E000BF0C37BD4680BC704700BF74
:10169C004405002067666666F404002080B483B0BD
:1016AC0000AF7860064A7B6852F82330012B01D1D9
:1016BC00012300E0002318460C37BD4680BC704760
:1016CC004405002080B483B000AF00237B601CE095
:1016DC00124A7B6852F82330002B13DD0F4A7B68CB
:1016EC0052F823305A1E0D497B6841F823200B4ACF
:1016FC007B6852F82330002B04DC094A7B680121FB
:10170C0042F823107B6801337B607B68132BDFDD91
:10171C0000BF00BF0C37BD4680BC7047F4040020EE
:10172C004405002080B485B000AF154B9B69144A6A
:10173C0043F001039361124B9B6903F00103BB60FF
:10174C00BB680F4BDB690E4A43F08053D3610C4BE3
:10175C00DB6903F080537B607B680A4B5B68FB6042
:10176C00FB6823F0E063FB60FB6843F00073FB60F5
:10177C00044AFB68536000BF1437BD4680BC7047F9
:10178C00001002400000014080B58AB000AF7860C4
:10179C0007F1140300221A605A609A60DA607B68C1
:1017AC001B681D4A934232D11C4B9B691B4A43F068
:1017BC0008039361194B9B6903F008033B613B6978
:1017CC004FF440737B611223BB6103233B6207F12F
:1017DC0014031946124800F0C5FA124B5B687B6281
:1017EC007B6A43F0E0637B627B6A43F002037B62BB
:1017FC000C4A7B6A5360094BDB69084A43F40013BB
:10180C00D361064BDB6903F40013FB60FB6800BF7C
:10181C002837BD4680BD00BF005400400010024078
:10182C00000C01400000014080B584B000AF78602E
:10183C007B681B68B3F1804F13D10C4BDB690B4AEF
:10184C0043F00103D361094BDB6903F00103FB6037
:10185C00FB68002200211C2000F04DFA1C2000F037
:10186C0066FA00BF1037BD4680BD00BF00100240B5
:10187C0080B400AFFEE780B400AFFEE780B400AFE9
:10188C00FEE780B400AFFEE780B400AFFEE780B4A3
:10189C0000AF00BFBD4680BC704780B400AF00BF36
:1018AC00BD4680BC704780B400AF00BFBD4680BC55
:1018BC00704780B500AF00F007F900BF80BD000095
:1018CC0080B500AF024801F051FD00BF80BD00BFE4
:1018DC008C01002080B586B000AF7860144A154B9F
:1018EC00D31A7B617B693B61134B1B68002B02D1C4
:1018FC00114B124A1A60104B1A687B6813443A69F0
:10190C009A4207D202F082F803460C221A604FF07A
:10191C00FF3309E0084B1B68FB60074B1A687B68B8
:10192C001344054A1360FB6818461837BD4680BD42
:10193C000050002000040000BC000020A80500207E
:10194C0080B400AF00BFBD4680BC704780B500AF0F
:10195C00FEF71EFDFEF75FFD00210120FEF762FD84
:10196C000548FEF743FD4FF47A7000F0C9F8FEF716
:10197C0052FD00BF80BD00BFCC43000880B586B0CF
:10198C0000AF7860396000210120FEF74BFD7868CC
:10199C00FEF72CFD07F108033A680849184602F0D7
:1019AC0067F800210220FEF73DFD07F108031846F9
:1019BC00FEF71CFD00BF1837BD4680BDDC43000898
:1019CC0080B582B000AF7860396000210120FEF74D
:1019DC0029FD7868FEF70AFD00210220FEF722FDA2
:1019EC003868FEF703FD00BF0837BD4680BD000018
:1019FC00FFF7A6FF0B480C490C4A002302E0D45811
:101A0C00C4500433C4188C42F9D3094A094C00233E
:101A1C0001E013600432A242FBD301F0FDFFFEF79C
:101A2C0023FD704700000020940000205044000863
:101A3C0094000020A8050020FEE7000080B500AF50
:101A4C00084B1B68074A43F010031360032000F097
:101A5C0047F90F2000F008F8FFF764FE0023184642
:101A6C0080BD00BF0020024080B582B000AF78601E
:101A7C00124B1A68124B1B7819464FF47A73B3FB4E
:101A8C00F1F3B2FBF3F3184600F05FF90346002BB9
:101A9C0001D001230EE07B680F2B0AD80022796855
:101AAC004FF0FF3000F027F9064A7B6813600023E3
:101ABC0000E0012318460837BD4680BD24000020F5
:101ACC002C0000202800002080B400AF054B1B78B0
:101ADC001A46054B1B681344034A136000BFBD46EE
:101AEC0080BC70472C0000209405002080B400AF0F
:101AFC00024B1B681846BD4680BC704794050020FD
:101B0C0080B584B000AF7860FFF7F0FFB8607B68F9
:101B1C00FB60FB68B3F1FF3F05D00A4B1B781A46FC
:101B2C00FB681344FB6000BFFFF7E0FF0246BB6895
:101B3C00D31AFA689A42F7D800BF00BF1037BD46D7
:101B4C0080BD00BF2C00002080B485B000AF786051
:101B5C007B6803F00703FB600C4BDB68BB60BA6867
:101B6C004FF6FF031340BB60FB681A02BB681343BC
:101B7C0043F0BF6343F40033BB60044ABB68D360DB
:101B8C0000BF1437BD4680BC704700BF00ED00E0BD
:101B9C0080B400AF044BDB681B0A03F00703184644
:101BAC00BD4680BC704700BF00ED00E080B483B040
:101BBC0000AF0346FB7197F90730002B0BDBFB7969
:101BCC0003F01F02064997F907305B09012000FA60
:101BDC0002F241F8232000BF0C37BD4680BC704791
:101BEC0000E100E080B483B000AF03463960FB71C4
:101BFC0097F90730002B0ADB3B68DAB20C4997F9EE
:101C0C0007301201D2B20B4483F800230AE03B6880
:101C1C00DAB20849FB7903F00F03043B1201D2B28C
:101C2C000B441A7600BF0C37BD4680BC704700BF12
:101C3C0000E100E000ED00E080B489B000AFF86096
:101C4C00B9607A60FB6803F00703FB61FB69C3F1C1
:101C5C000703042B28BF0423BB61FB690433062B49
:101C6C0002D9FB69033B00E000237B614FF0FF329C
:101C7C00BB6902FA03F3DA43BB681A407B699A40EA
:101C8C004FF0FF317B6901FA03F3D9437B680B40BA
:101C9C00134318462437BD4680BC704780B582B0CC
:101CAC0000AF78607B68013BB3F1807F01D30123E7
:101CBC000FE00A4A7B68013B53600F214FF0FF3065
:101CCC00FFF790FF054B00229A60044B07221A6025
:101CDC00002318460837BD4680BD00BF10E000E069
:101CEC0080B582B000AF78607868FFF72DFF00BF39
:101CFC000837BD4680BD80B586B000AF0346B960DD
:101D0C007A60FB7300237B61FFF742FF78617A688E
:101D1C00B9687869FFF790FF024697F90F301146C2
:101D2C001846FFF75FFF00BF1837BD4680BD80B572
:101D3C0082B000AF0346FB7197F907301846FFF7E6
:101D4C0035FF00BF0837BD4680BD80B582B000AFFF
:101D5C0078607868FFF7A2FF034618460837BD463F
:101D6C0080BD000080B48BB000AF78603960002378
:101D7C007B6200233B6269E101227B6A02FA03F376
:101D8C00FB613B681B68FA691340BB61BA69FB696C
:101D9C009A4240F058813B685B689A4A93425ED005
:101DAC00984A934275D8984A934258D0964A93428F
:101DBC006FD8964A934252D0944A934269D8944A27
:101DCC0093424CD0924A934263D8924A934246D063
:101DDC00904A93425DD8122B2AD8122B59D801A2C3
:101DEC0052F823F06B1E0008451E0008571E000811
:101DFC00991E00089F1E00089F1E00089F1E0008C9
:101E0C009F1E00089F1E00089F1E00089F1E0008B2
:101E1C009F1E00089F1E00089F1E00089F1E0008A2
:101E2C009F1E00089F1E00084D1E0008611E000822
:101E3C00794A934213D02CE03B68DB683B6229E083
:101E4C003B68DB6804333B6224E03B68DB680833A7
:101E5C003B621FE03B68DB680C333B621AE03B687B
:101E6C009B68002B02D104233B6213E03B689B6808
:101E7C00012B05D108233B627B68FA691A6109E0E2
:101E8C0008233B627B68FA695A6103E000233B62DA
:101E9C0000E000BFBB69FF2B01D87B6801E07B68C9
:101EAC0004337B61BB69FF2B02D87B6A9B0002E089
:101EBC007B6A083B9B003B617B691A680F213B697D
:101ECC0001FA03F3DB431A40396A3B6901FA03F365
:101EDC001A437B691A603B685B6803F08053002BE4
:101EEC0000F0B1804D4B9B694C4A43F00103936168
:101EFC004A4B9B6903F00103BB60BB68484A7B6A91
:101F0C009B08023352F82330FB607B6A03F0030317
:101F1C009B000F2202FA03F3DB43FA681340FB60C9
:101F2C007B68404A934213D07B683F4A93420DD062
:101F3C007B683E4A934207D07B683D4A934201D16D
:101F4C00032306E0042304E0022302E0012300E063
:101F5C0000237A6A02F0030292009340FA6813435A
:101F6C00FB602F497B6A9B080233FA6841F82320F7
:101F7C003B685B6803F48013002B06D02D4B9A68EA
:101F8C002C49BB6913438B6006E02A4B9A68BB69EA
:101F9C00DB43284913408B603B685B6803F40013F8
:101FAC00002B06D0234BDA682249BB691343CB6064
:101FBC0006E0204BDA68BB69DB431E491340CB605B
:101FCC003B685B6803F40033002B06D0194B5A684E
:101FDC001849BB6913434B6006E0164B5A68BB6942
:101FEC00DB43144913404B603B685B6803F480335C
:101FFC00002B21D00F4B1A680E49BB6913430B60A1
:10200C0021E000BF0000321000003110000022104F
:10201C0000002110000012100000111000100240EE
:10202C000000014000080140000C0140001001407C
:10203C0000140140000401400B4B1A68BB69DB43E0
:10204C00094913400B607B6A01337B623B681A6859
:10205C007B6A22FA03F3002B7FF48EAE00BF00BF25
:10206C002C37BD4680BC70470004014080B485B05D
:10207C0000AF78600B467B807B689A687B88134046
:10208C00002B02D00123FB7301E00023FB73FB7BCD
:10209C0018461437BD4680BC704780B483B000AF7F
:1020AC0078600B467B8013467B707B78002B03D0CB
:1020BC007A887B681A6103E07B881A047B681A6152
:1020CC0000BF0C37BD4680BC704780B485B000AFF4
:1020DC0078600B467B807B68DB68FB607A88FB68EA
:1020EC0013401A04FB68D9437B880B401A437B6866
:1020FC001A6100BF1437BD4680BC704780B584B0F0
:10210C0000AF78607B68002B01D101232BE17B6849
:10211C0093F83D30DBB2002B06D17B68002283F8AC
:10212C003C207868FFF730FB7B68242283F83D2045
:10213C007B681B681A687B681B6822F001021A60B6
:10214C007B681B681A687B681B6842F400421A6043
:10215C007B681B681A687B681B6822F400421A6053
:10216C0001F030F8F8607B685B68814A934207D8CD
:10217C00FB68804A934294BF01230023DBB206E044
:10218C00FB687D4A934294BF01230023DBB2002BF2
:10219C0001D00123E7E0FB68784AA2FB03239B0CE8
:1021AC00BB607B681B685B6823F03F017B681B6826
:1021BC00BA680A435A607B681B681B6A23F03F01AC
:1021CC007B685B686A4A934202D8BB68013309E0BA
:1021DC00BB684FF4967202FB03F3694AA2FB03231C
:1021EC009B0901337A6812680B4313627B681B6886
:1021FC00DB6923F44F4222F0FF027B685B685C4989
:10220C008B4219D8FB68591E7B685B685B00B1FB7D
:10221C00F3F3591C40F6FC730B40002B0AD0FB68FF
:10222C00591E7B685B685B00B1FBF3F30133C3F3AE
:10223C000B0351E004234FE07B689B68002B11D10A
:10224C00FB68581E7B6859680B465B000B44B0FB5F
:10225C00F3F30133C3F30B03002B0CBF0123002357
:10226C00DBB212E0FB68581E7B6859680B469B007A
:10227C000B4499000B44B0FBF3F30133C3F30B0392
:10228C00002B0CBF01230023DBB2002B01D0012358
:10229C0022E07B689B68002B0ED1FB68581E7B6884
:1022AC0059680B465B000B44B0FBF3F30133C3F3EB
:1022BC000B0343F400430FE0FB68581E7B6859681E
:1022CC000B469B000B4499000B44B0FBF3F301331A
:1022DC00C3F30B0343F44043796809681343CB61A0
:1022EC007B681B681B6823F0C0017B68DA697B681C
:1022FC001B6A1A437B681B680A431A607B681B685D
:10230C009B6823F4034323F0FF037A6811697A680E
:10231C00D26811437A6812680B4393607B681B6820
:10232C00DB6823F0FF017B685A697B689B691A4361
:10233C007B681B680A43DA607B681B681A687B68D9
:10234C001B6842F001021A607B6800221A647B68E9
:10235C00202283F83D207B6800221A637B680022D0
:10236C0083F83E20002318461037BD4680BD00BFC1
:10237C00A08601007F841E00FF083D0083DE1B4306
:10238C00D34D621080B588B002AFF8607A601A46FF
:10239C000B467B8113463B81FFF7A8FB7861FB68FA
:1023AC0093F83D30DBB2202B40F0E0807B6900934A
:1023BC00192301227049F86800F064F90346002BD8
:1023CC0001D00223D3E0FB6893F83C30012B01D100
:1023DC000223CCE0FB68012283F83C20FB681B68DD
:1023EC001B6803F00103012B07D0FB681B681A68FC
:1023FC00FB681B6842F001021A60FB681B681A68D4
:10240C00FB681B6822F400621A60FB68212283F8C7
:10241C003D20FB68102283F83E20FB6800221A64E2
:10242C00FB687A685A62FB683A895A85FB685B8D4F
:10243C009AB2FB681A85FB68504ADA6279897B6923
:10244C003A6AF86800F09CF80346002B01D001238F
:10245C008DE000233B61FB681B685B693B61FB689B
:10246C001B689B693B613B6966E07A69396AF8686D
:10247C0000F022FA0346002B0DD0FB681B6C042BDA
:10248C0007D1FB681B681A68FB681B6842F4007272
:10249C001A6001236BE0FB685B6A1A78FB681B68A7
:1024AC001A61FB685B6A5A1CFB685A62FB685B8D9D
:1024BC009BB2013B9AB2FB685A85FB681B8D013BB2
:1024CC009AB2FB681A85FB681B685B6903F004030E
:1024DC00042B1BD1FB681B8D002B17D0FB685B6A90
:1024EC001A78FB681B681A61FB685B6A5A1CFB68EC
:1024FC005A62FB685B8D9BB2013B9AB2FB685A85B2
:10250C00FB681B8D013B9AB2FB681A857A69396AA4
:10251C00F86800F019FA0346002B0DD0FB681B6C11
:10252C00042B07D1FB681B681A68FB681B6842F414
:10253C0000721A6001231AE0FB681B8D002B94D1EA
:10254C00FB681B681A68FB681B6842F400721A600F
:10255C00FB68202283F83D20FB68002283F83E2094
:10256C00FB68002283F83C20002300E0022318467D
:10257C001837BD4680BD00BF020010000000FFFFF1
:10258C0080B588B002AFF8607A603B600B467B8107
:10259C00FB68DB6A7B617B69082B06D07B69012BAE
:1025AC0003D07B6913F5803F08D1FB681B681A6860
:1025BC00FB681B6842F480721A600BE0FB681B6BB3
:1025CC00122B07D1FB681B681A68FB681B6842F466
:1025DC0080721A603B6800937B6800224FF00111F7
:1025EC00F86800F04FF80346002B0DD0FB681B6811
:1025FC001B6803F48073B3F5807F03D1FB684FF441
:10260C0000721A64032335E0FB681B69B3F5804F35
:10261C0008D17B89DBB21A46FB681B6802F0FE020C
:10262C001A611BE07B89DB11DBB203F00603DBB222
:10263C0063F00F03DAB2FB681B681A613B687A68B7
:10264C000E49F86800F098F80346002B01D00123DE
:10265C0010E07B89DAB2FB681B681A613B687A6808
:10266C000749F86800F088F80346002B01D00123D5
:10267C0000E0002318461837BD4680BD0800010055
:10268C000200010080B584B000AFF860B9603B6017
:10269C001346FB7148E03B68B3F1FF3F44D0FFF7B2
:1026AC0025FA0246BB69D31A3A689A4202D33B68B0
:1026BC00002B39D1BB681B0CDBB2012B0DD1FB6895
:1026CC001B685B69DA43BB6813409BB2002B0CBFE1
:1026DC0001230023DBB21A460CE0FB681B689B69E4
:1026EC00DA43BB6813409BB2002B0CBF01230023C1
:1026FC00DBB21A46FB799A4216D1FB6800221A63A8
:10270C00FB68202283F83D20FB68002283F83E20E2
:10271C00FB681B6C43F02002FB681A64FB68002208
:10272C0083F83C20012323E0BB681B0CDBB2012B9C
:10273C000DD1FB681B685B69DA43BB6813409BB225
:10274C00002B0CBF01230023DBB21A460CE0FB6804
:10275C001B689B69DA43BB6813409BB2002B0CBF10
:10276C0001230023DBB21A46FB799A4293D0002353
:10277C0018461037BD4680BD80B584B000AFF860F8
:10278C00B9607A603B6071E0FB681B685B6903F4BD
:10279C008063B3F5806F23D1FB681B681A68FB68F4
:1027AC001B6842F400721A60FB681B686FF480624D
:1027BC005A61FB6800221A63FB68202283F83D20D3
:1027CC00FB68002283F83E20FB681B6C43F004027C
:1027DC00FB681A64FB68002283F83C20012367E045
:1027EC007B68B3F1FF3F41D0FFF780F902463B68AD
:1027FC00D31A7A689A4202D37B68002B36D1BB6815
:10280C001B0CDBB2012B0CD1FB681B685B69DA4338
:10281C00BB6813409BB2002B14BF01230023DBB217
:10282C000BE0FB681B689B69DA43BB6813409BB2E7
:10283C00002B14BF01230023DBB2002B16D0FB6846
:10284C0000221A63FB68202283F83D20FB680022DB
:10285C0083F83E20FB681B6C43F02002FB681A6473
:10286C00FB68002283F83C20012321E0BB681B0C91
:10287C00DBB2012B0CD1FB681B685B69DA43BB68CC
:10288C0013409BB2002B14BF01230023DBB20BE0DF
:10289C00FB681B689B69DA43BB6813409BB2002B37
:1028AC0014BF01230023DBB2002B7FF46DAF002398
:1028BC0018461037BD4680BD80B584B000AFF860B7
:1028CC00B9607A6034E0F86800F086F80346002BB3
:1028DC0001D0012334E0BB68B3F1FF3F28D0FFF7F0
:1028EC0005F902467B68D31ABA689A4202D3BB68D0
:1028FC00002B1DD1FB681B685B6903F08003802BE8
:10290C0016D0FB6800221A63FB68202283F83D2056
:10291C00FB68002283F83E20FB681B6C43F020020E
:10292C00FB681A64FB68002283F83C20012307E053
:10293C00FB681B685B6903F08003802BC3D1002309
:10294C0018461037BD4680BD80B584B000AFF86026
:10295C00B9607A6034E0F86800F03EF80346002B6A
:10296C0001D0012334E0BB68B3F1FF3F28D0FFF75F
:10297C00BDF802467B68D31ABA689A4202D3BB6888
:10298C00002B1DD1FB681B685B6903F00403042B4F
:10299C0016D0FB6800221A63FB68202283F83D20C6
:1029AC00FB68002283F83E20FB681B6C43F020027E
:1029BC00FB681A64FB68002283F83C20012307E0C3
:1029CC00FB681B685B6903F00403042BC3D1002371
:1029DC0018461037BD4680BD80B483B000AF786018
:1029EC007B681B685B6903F48063B3F5806F1BD154
:1029FC007B681B686FF480625A617B6800221A63E3
:102A0C007B68202283F83D207B68002283F83E20DF
:102A1C007B681B6C43F004027B681A647B680022A1
:102A2C0083F83C20012300E0002318460C37BD46F8
:102A3C0080BC704780B586B000AF78607B68002B97
:102A4C0001D101236CE27B681B6803F00103002BAE
:102A5C0000F08780924B5B6803F00C03042B0CD0C6
:102A6C008F4B5B6803F00C03082B12D18C4B5B680B
:102A7C0003F48033B3F5803F0BD1894B1B6803F40F
:102A8C000033002B6CD07B685B68002B68D1012372
:102A9C0046E27B685B68B3F5803F06D1804B1B68D0
:102AAC007F4A43F4803313602EE07B685B68002B15
:102ABC000CD17B4B1B687A4A23F480331360784B20
:102ACC001B68774A23F4802313601DE07B685B68E6
:102ADC00B3F5A02F0CD1724B1B68714A43F48023C1
:102AEC0013606F4B1B686E4A43F4803313600BE02A
:102AFC006B4B1B686A4A23F480331360684B1B686A
:102B0C00674A23F4802313607B685B68002B13D027
:102B1C00FEF7ECFF386108E0FEF7E8FF02463B6980
:102B2C00D31A642B01D90323FAE15D4B1B6803F420
:102B3C000033002BF0D014E0FEF7D8FF386108E02A
:102B4C00FEF7D4FF02463B69D31A642B01D9032349
:102B5C00E6E1534B1B6803F40033002BF0D100E08B
:102B6C0000BF7B681B6803F00203002B63D04C4B47
:102B7C005B6803F00C03002B0BD0494B5B6803F034
:102B8C000C03082B1CD1464B5B6803F48033002BE1
:102B9C0016D1434B1B6803F00203002B05D07B6856
:102BAC001B69012B01D00123BAE13D4B1B6823F0BB
:102BBC00F8027B685B69DB00394913430B603AE030
:102BCC007B681B69002B20D0364B01221A60FEF764
:102BDC008DFF386108E0FEF789FF02463B69D31A86
:102BEC00022B01D903239BE12D4B1B6803F002033D
:102BFC00002BF0D02A4B1B6823F0F8027B685B6932
:102C0C00DB00274913430B6015E0264B00221A60AA
:102C1C00FEF76CFF386108E0FEF768FF02463B697F
:102C2C00D31A022B01D903237AE11D4B1B6803F045
:102C3C000203002BF0D17B681B6803F00803002B08
:102C4C003AD07B689B69002B19D0174B01221A6074
:102C5C00FEF74CFF386108E0FEF748FF02463B697F
:102C6C00D31A022B01D903235AE10D4B5B6A03F0F3
:102C7C000203002BF0D0012000F0B8FA1CE00A4B44
:102C8C0000221A60FEF732FF38610FE0FEF72EFFCC
:102C9C0002463B69D31A022B08D9032340E100BF3B
:102CAC000010024000004242800442429E4B5B6A8C
:102CBC0003F00203002BE9D17B681B6803F00403CB
:102CCC00002B00F0A6800023FB75974BDB6903F00B
:102CDC008053002B0DD1944BDB69934A43F0805306
:102CEC00D361914BDB6903F08053BB60BB6801235C
:102CFC00FB758E4B1B6803F48073002B18D18B4B28
:102D0C001B688A4A43F480731360FEF7EFFE386148
:102D1C0008E0FEF7EBFE02463B69D31A642B01D99F
:102D2C000323FDE0814B1B6803F48073002BF0D070
:102D3C007B68DB68012B06D17B4B1B6A7A4A43F01C
:102D4C00010313622DE07B68DB68002B0CD1764B02
:102D5C001B6A754A23F001031362734B1B6A724A98
:102D6C0023F0040313621CE07B68DB68052B0CD199
:102D7C006D4B1B6A6C4A43F0040313626A4B1B6A6B
:102D8C00694A43F0010313620BE0674B1B6A664A06
:102D9C0023F001031362644B1B6A634A23F00403A0
:102DAC0013627B68DB68002B15D0FEF79FFE386141
:102DBC000AE0FEF79BFE02463B69D31A41F28832C9
:102DCC00934201D90323ABE0574B1B6A03F0020378
:102DDC00002BEED014E0FEF789FE38610AE0FEF716
:102DEC0085FE02463B69D31A41F28832934201D9DF
:102DFC00032395E04C4B1B6A03F00203002BEED12E
:102E0C00FB7D012B05D1484BDB69474A23F08053EE
:102E1C00D3617B68DB69002B00F08180424B5B68DF
:102E2C0003F00C03082B61D07B68DB69022B46D1C5
:102E3C003F4B00221A60FEF759FE386108E0FEF79E
:102E4C0055FE02463B69D31A022B01D9032367E0D6
:102E5C00354B1B6803F00073002BF0D17B681B6AA9
:102E6C00B3F5803F08D1304B5B6823F400327B68AC
:102E7C009B682D4913434B602B4B5B6823F47412F6
:102E8C007B68196A7B685B6A0B43274913434B6069
:102E9C00274B01221A60FEF729FE386108E0FEF785
:102EAC0025FE02463B69D31A022B01D9032337E0D6
:102EBC001D4B1B6803F00073002BF0D02FE01C4B54
:102ECC0000221A60FEF712FE386108E0FEF70EFED3
:102EDC0002463B69D31A022B01D9032320E0124B83
:102EEC001B6803F00073002BF0D118E07B68DB69E2
:102EFC00012B01D1012313E00B4B5B68FB60FB68DA
:102F0C0003F480327B681B6A9A4206D1FB6803F497
:102F1C0070127B685B6A9A4201D0012300E00023A7
:102F2C0018461837BD4680BD0010024000700040A6
:102F3C006000424280B584B000AF786039607B6835
:102F4C00002B01D10123D0E06A4B1B6803F007036F
:102F5C003A689A4210D9674B1B6823F007026549FF
:102F6C003B6813430B60634B1B6803F007033A6821
:102F7C009A4201D00123B8E07B681B6803F002037E
:102F8C00002B20D07B681B6803F00403002B05D0BA
:102F9C00594B5B68584A43F4E06353607B681B6889
:102FAC0003F00803002B05D0534B5B68524A43F4E3
:102FBC0060535360504B5B6823F0F0027B689B6856
:102FCC004D4913434B607B681B6803F00103002BD6
:102FDC0040D07B685B68012B07D1474B1B6803F41F
:102FEC000033002B15D101237FE07B685B68022B3B
:102FFC0007D1414B1B6803F00073002B09D101234F
:10300C0073E03D4B1B6803F00203002B01D101233D
:10301C006BE0394B5B6823F003027B685B683649D5
:10302C0013434B60FEF762FDF8600AE0FEF75EFDAD
:10303C000246FB68D31A41F28832934201D903232A
:10304C0053E02D4B5B6803F00C027B685B689B00C4
:10305C009A42EBD1274B1B6803F007033A689A425C
:10306C0010D2244B1B6823F0070222493B68134300
:10307C000B60204B1B6803F007033A689A4201D09F
:10308C00012332E07B681B6803F00403002B08D09B
:10309C00194B5B6823F4E0627B68DB6816491343C9
:1030AC004B607B681B6803F00803002B09D0124BA4
:1030BC005B6823F460527B681B69DB000E49134389
:1030CC004B6000F021F802460B4B5B681B0903F0C8
:1030DC000F030A49CB5C22FA03F3094A1360094B2C
:1030EC001B681846FEF7C0FC002318461037BD4677
:1030FC0080BD00BF0020024000100240E8430008E1
:10310C00240000202800002080B487B000AF0023EA
:10311C00FB600023BB6000237B6100237B600023EA
:10312C003B611E4B5B68FB60FB6803F00C03042BDC
:10313C0002D0082B03D027E0194B3B6127E0FB683A
:10314C009B0C03F00F03174AD35C7B60FB6803F402
:10315C008033002B10D0114B5B685B0C03F0010328
:10316C00114AD35CBB607B680D4A02FB03F2BB685F
:10317C00B2FBF3F37B6104E07B680C4A02FB03F3C4
:10318C007B617B693B6102E0054B3B6100BF3B69A6
:10319C0018461C37BD4680BC704700BF001002406B
:1031AC0000127A00004400081044000800093D0099
:1031BC0080B400AF024B1B681846BD4680BC7047FC
:1031CC002400002080B500AFFFF7F2FF0246054B4C
:1031DC005B681B0A03F007030349CB5C22FA03F379
:1031EC00184680BD00100240F843000880B485B03A
:1031FC0000AF78600A4B1B680A4AA2FB03235B0AE8
:10320C007A6802FB03F3FB6000BFFB685A1EFA608E
:10321C00002BF9D100BF00BF1437BD4680BC7047EE
:10322C0024000020D34D621080B582B000AF7860CE
:10323C007B68002B01D1012341E07B6893F83D3082
:10324C00DBB2002B06D17B68002283F83C20786827
:10325C00FEF7EAFA7B68022283F83D207B681A6845
:10326C007B6804331946104600F05CFA7B68012237
:10327C0083F846207B68012283F83E207B6801227C
:10328C0083F83F207B68012283F840207B68012271
:10329C0083F841207B68012283F842207B6801225D
:1032AC0083F843207B68012283F844207B68012249
:1032BC0083F845207B68012283F83D2000231846C3
:1032CC000837BD4680BD000080B485B000AF786083
:1032DC007B6893F83D30DBB2012B01D001233AE03F
:1032EC007B68022283F83D207B681B68DA687B6868
:1032FC001B6842F00102DA607B681B68184A934233
:10330C000ED07B681B68B3F1804F09D07B681B68BB
:10331C00144A934204D07B681B68134A934211D120
:10332C007B681B689B6803F00703FB60FB68062B3C
:10333C0010D07B681B681A687B681B6842F001021E
:10334C001A6007E07B681B681A687B681B6842F090
:10335C0001021A60002318461437BD4680BC704722
:10336C00002C0140000400400008004080B584B0EF
:10337C0000AF78607B681B68DB68FB607B681B6850
:10338C001B69BB60BB6803F00203002B20D0FB68F9
:10339C0003F00203002B1BD07B681B686FF002024A
:1033AC001A617B6801221A777B681B689B6903F0A2
:1033BC000303002B03D0786800F098F905E07868D7
:1033CC0000F08BF9786800F09AF97B6800221A7784
:1033DC00BB6803F00403002B20D0FB6803F004034C
:1033EC00002B1BD07B681B686FF004021A617B6892
:1033FC0002221A777B681B689B6903F44073002BCD
:10340C0003D0786800F072F905E0786800F065F98F
:10341C00786800F074F97B6800221A77BB6803F0B7
:10342C000803002B20D0FB6803F00803002B1BD0F3
:10343C007B681B686FF008021A617B6804221A779C
:10344C007B681B68DB6903F00303002B03D07868EF
:10345C0000F04CF905E0786800F03FF9786800F06E
:10346C004EF97B6800221A77BB6803F01003002B1F
:10347C0020D0FB6803F01003002B1BD07B681B686B
:10348C006FF010021A617B6808221A777B681B6840
:10349C00DB6903F44073002B03D0786800F026F945
:1034AC0005E0786800F019F9786800F028F97B6875
:1034BC0000221A77BB6803F00103002B0CD0FB68C9
:1034CC0003F00103002B07D07B681B686FF001022F
:1034DC001A617868FDF73CF9BB6803F08003002B98
:1034EC000CD0FB6803F08003002B07D07B681B68B3
:1034FC006FF080021A61786800F07FFABB6803F005
:10350C004003002B0CD0FB6803F04003002B07D0CA
:10351C007B681B686FF040021A61786800F0F8F85D
:10352C00BB6803F02003002B0CD0FB6803F02003D6
:10353C00002B07D07B681B686FF020021A6178683B
:10354C0000F052FA00BF1037BD4680BD80B584B084
:10355C0000AF786039600023FB737B6893F83C30D4
:10356C00012B01D10223B4E07B68012283F83C20BB
:10357C007B68022283F83D207B681B689B68BB60DC
:10358C00BB6823F07703BB60BB6823F47F43BB604D
:10359C007B681B68BA689A603B681B68B3F5005F70
:1035AC003ED0B3F5005F00F28780B3F5805F00F08A
:1035BC008680B3F5805F7FD8702B1AD0702B7BD8A8
:1035CC00602B50D0602B77D8502B3CD0502B73D81D
:1035DC00402B58D0402B6FD8302B64D0302B6BD86D
:1035EC00202B60D0202B67D8002B5CD0102B5AD00E
:1035FC0062E07B6818683B6899683B685A683B686E
:10360C00DB6800F074F97B681B689B68BB60BB6867
:10361C0043F07703BB607B681B68BA689A604FE025
:10362C007B6818683B6899683B685A683B68DB683C
:10363C0000F05DF97B681B689A687B681B6842F434
:10364C0080429A603CE07B6818683B6859683B682C
:10365C00DB681A4600F0D4F87B681B6850211846CA
:10366C0000F02BF92CE07B6818683B6859683B68C4
:10367C00DB681A4600F0F2F87B681B68602118467C
:10368C0000F01BF91CE07B6818683B6859683B68C4
:10369C00DB681A4600F0B4F87B681B6840211846BA
:1036AC0000F00BF90CE07B681A683B681B68194644
:1036BC00104600F002F903E00123FB7300E000BFA9
:1036CC007B68012283F83D207B68002283F83C2034
:1036DC00FB7B18461037BD4680BD80B483B000AF6D
:1036EC00786000BF0C37BD4680BC704780B483B097
:1036FC0000AF786000BF0C37BD4680BC704780B40B
:10370C0083B000AF786000BF0C37BD4680BC7047FB
:10371C0080B483B000AF786000BF0C37BD4680BC6E
:10372C007047000080B485B000AF786039607B686A
:10373C001B68FB607B682F4A93420BD07B68B3F10C
:10374C00804F07D07B682C4A934203D07B682B4A6E
:10375C00934208D1FB6823F07003FB603B685B6805
:10376C00FA681343FB607B68224A93420BD07B6858
:10377C00B3F1804F07D07B681F4A934203D07B681C
:10378C001E4A934208D1FB6823F44073FB603B68EC
:10379C00DB68FA681343FB60FB6823F080023B682C
:1037AC005B691343FB607B68FA681A603B689A6834
:1037BC007B68DA623B681A687B689A627B680D4AA0
:1037CC00934203D13B681A697B681A637B680122B8
:1037DC005A617B681B6903F00103002B05D07B68E1
:1037EC001B6923F001027B681A6100BF1437BD46C8
:1037FC0080BC7047002C01400004004000080040D1
:10380C0080B487B000AFF860B9607A60FB681B6A5F
:10381C007B61FB681B6A23F00102FB681A62FB6880
:10382C009B693B613B6923F0F0033B617B681B01A7
:10383C003A6913433B617B6923F00A037B617A6924
:10384C00BB6813437B61FB683A699A61FB687A69D0
:10385C001A6200BF1C37BD4680BC704780B487B06D
:10386C0000AFF860B9607A60FB681B6A7B61FB682B
:10387C001B6A23F01002FB681A62FB689B693B61B0
:10388C003B6923F470433B617B681B033A69134328
:10389C003B617B6923F0A0037B61BB681B017A69E8
:1038AC0013437B61FB683A699A61FB687A691A6217
:1038BC0000BF1C37BD4680BC704780B485B000AFDC
:1038CC00786039607B689B68FB60FB6823F0700351
:1038DC00FB603A68FB68134343F00703FB607B68AB
:1038EC00FA689A6000BF1437BD4680BC704780B43C
:1038FC0087B000AFF860B9607A603B60FB689B688A
:10390C007B617B6923F47F437B613B681A027B6894
:10391C001A43BB6813437A6913437B61FB687A696A
:10392C009A6000BF1C37BD4680BC704780B485B020
:10393C0000AF786039607B6893F83C30012B01D183
:10394C00022346E07B68012283F83C207B6802223C
:10395C0083F83D207B681B685B68FB607B681B6899
:10396C009B68BB60FB6823F07003FB603B681B68C3
:10397C00FA681343FB607B681B68FA685A607B68C3
:10398C001B68164A93420ED07B681B68B3F1804FBC
:10399C0009D07B681B68124A934204D07B681B6871
:1039AC00104A93420CD1BB6823F08003BB603B6888
:1039BC005B68BA681343BB607B681B68BA689A6023
:1039CC007B68012283F83D207B68002283F83C2031
:1039DC00002318461437BD4680BC7047002C0140AC
:1039EC00000400400008004080B483B000AF786051
:1039FC0000BF0C37BD4680BC704780B483B000AFAD
:103A0C00786000BF0C37BD4680BC7047014B18680E
:103A1C00704700BF3000002070B500260C4D0D4CD7
:103A2C00641BA410A64209D100F05CFC00260A4DD0
:103A3C000A4C641BA410A64205D170BD55F8043B7A
:103A4C0098470136EEE755F8043B98470136F2E704
:103A5C004844000848440008484400084C44000806
:103A6C0003460244934200D1704703F8011BF9E767
:103A7C000EB46FF0004100B59CB01DAB02900690E7
:103A8C00079104910848094953F8042B05910068E3
:103A9C0002A9019300F068F80022029B1A701CB076
:103AAC005DF804EB03B07047300000200802FFFF04
:103ABC002DE9F0478E6882469E420C4690461F4682
:103ACC0038D88A8912F4906F32D02568096901338D
:103ADC00A5EB010965694B4405EB450505EBD5756F
:103AEC006D109D4238BF1D46530531D5294600F057
:103AFC0053FB064650B90C234FF0FF30CAF8003088
:103B0C00A38943F04003A381BDE8F0874A462169AD
:103B1C0000F0CEFAA38923F4906343F08003A381D1
:103B2C0026614E4426603E466561A5EB0905A560FD
:103B3C00BE4200D93E4632464146206800F0C6FAE5
:103B4C00A36822689B1B32440020A3602260DBE741
:103B5C002A4600F07BFB06460028E1D1504621693D
:103B6C0000F0CEFAC7E700002DE9F04F98468B899C
:103B7C0007461B060D4614469DB00ED50B6963B95E
:103B8C00402100F009FB2860286120B90C233B6020
:103B9C004FF0FF30D1E040236B61002309932023C9
:103BAC008DF8293030234FF00109CDF80C80DFF867
:103BBC00A4818DF82A3023469A4613F8012B0AB1BA
:103BCC00252AF9D1BAEB040B0BD05B4622462946C9
:103BDC003846FFF76DFF013000F0AA80099A5A446D
:103BEC0009929AF80030002B00F0A28000234FF0CD
:103BFC00FF32CDE905230AF1010A049307938DF8EE
:103C0C0053301A935446052214F8011B514800F006
:103C1C0041FA049AD8B9D00644BF20238DF853300A
:103C2C00110744BF2B238DF853309AF800302A2B00
:103C3C0015D0544600204FF00A0C079A214611F873
:103C4C00013B303B092B4ED9B0B1079214E0A0EBED
:103C5C00080309FA03F31343A2460493D2E7039B28
:103C6C00191D1B680391002BBBBF5B4242F0020283
:103C7C0007930793B8BF049223782E2B0CD163784B
:103C8C002A2B35D1039B02341A1D1B680392002B7F
:103C9C00B8BF4FF0FF330593DFF8C8A0032250469E
:103CAC00217800F0F7F940B14023A0EB0A0003FAA9
:103CBC0000F0049B01340343049314F8011B062207
:103CCC0025488DF8281000F0E5F9002838D0234B52
:103CDC001BBB039B073323F0070308330393099B98
:103CEC003344099367E70C4601200CFB0232A5E72D
:103CFC0000234FF00A0C194601340593204610F8A6
:103D0C00012B303A092A03D9002BC5D00591C3E702
:103D1C00044601230CFB0121F0E703AB00932A4678
:103D2C0038460F4B04A9AFF30080421C0646D6D18F
:103D3C00AB895B063FF52CAF09981DB0BDE8F08F41
:103D4C0003AB00932A463846054B04A900F07CF8D7
:103D5C00EBE700BF124400081C4400080000000000
:103D6C00BD3A0008184400082DE9F047164699465C
:103D7C008A680B6907469342B8BF1346336091F8C3
:103D8C0043200C46DDF820800AB1013333602368F0
:103D9C00990642BF336802333360256815F0060577
:103DAC0006D104F1190AE36832689B1AAB4228DC8D
:103DBC0094F84320131E226818BF012392062DD4B9
:103DCC004946384604F14302C047013020D02368ED
:103DDC00E56803F00603042B18BF002532684FF08A
:103DEC000006A36808BFAD1A226908BF25EAE5756D
:103DFC009342C4BF9B1AED181A34B5421AD1002055
:103E0C0008E00123524649463846C047013003D1E9
:103E1C004FF0FF30BDE8F0870135C4E73020E118E2
:103E2C0081F843005A1C94F845102244023382F85E
:103E3C004310C5E70123224649463846C0470130A6
:103E4C00E6D00136D9E700002DE9FF470C46277E66
:103E5C009146782F80469A460C9904F1430207D874
:103E6C00622F0AD8002F00F0D980582F00F0A480C0
:103E7C0004F1420684F842703AE0A7F16303152B73
:103E8C00F6D801A050F823F0ED3E0008013F0008E1
:103E9C007D3E00087D3E00087D3E00087D3E00080A
:103EAC00013F00087D3E00087D3E00087D3E000875
:103EBC007D3E00080F400008313F0008F13F00082C
:103ECC007D3E00087D3E0008314000087D3E000824
:103EDC00313F00087D3E00087D3E0008F93F000898
:103EEC000B6804F142061A1D1B680A6084F8423004
:103EFC000123A4E0256808682E0600F104030AD506
:103F0C0005680B60002D03DA2D236D4284F84330D5
:103F1C000A235E4819E015F0400F05680B6018BFC6
:103F2C002DB2EFE70B682568181D0860280601D52F
:103F3C001D6802E06906FBD51D886F2F0CBF082396
:103F4C000A235248002184F843106668002EA8BF4B
:103F5C002168A660A4BF21F0040121600DB9002ED8
:103F6C004DD01646B5FBF3F103FB1157C75D06F8B0
:103F7C00017D2F46BB420D46F4D9082B0BD123688B
:103F8C00DF0708D5236961689942DEBF302306F844
:103F9C00013C06F1FF36921B22614B4621464046FE
:103FAC00CDF800A003AAFFF7DFFE01304CD14FF093
:103FBC00FF3004B0BDE8F087344884F845700E68D3
:103FCC00236856F8045B1F060E6014D5D90744BF4E
:103FDC0043F0200323601DB9236823F020032360E2
:103FEC001023AFE7236843F020032360782328488D
:103FFC0084F84530E3E75E0648BFADB2E6E7164607
:10400C00BBE70B6826681D1D60690D6035061B68D3
:10401C0001D5186002E07106FBD518800023164606
:10402C002361BAE70B681A1D0A601E68002130462E
:10403C00626800F02FF808B1801B60606368236130
:10404C00002384F84330A8E73246494640462369AA
:10405C00D0470130ABD023689B0713D4E068039B97
:10406C009842B8BF1846A4E7012332464946404659
:10407C00D04701309BD00135E36803995B1AAB4202
:10408C00F2DCEBE7002504F11906F5E72344000800
:10409C0034440008034610B5C9B202449342184692
:1040AC0001D1002003E0047801338C42F6D110BD1D
:1040BC000A44914200F1FF3300D1704710B511F85A
:1040CC00014B914203F8014FF9D110BD884210B554
:1040DC0001EB020402D98442234607D8431EA142B5
:1040EC0008D011F8012B03F8012FF8E70146024420
:1040FC008A4200D110BD13F8014D02F8014DF7E7CB
:10410C0038B50546002943D051F8043C0C1F002B50
:10411C00B8BFE41800F0D0F81E4A1368104633B943
:10412C00636014602846BDE8384000F0CBB8A34269
:10413C000AD921686218934201BF1A685B68521849
:10414C00226063600460EDE71A465B680BB1A34222
:10415C00FAD911685018A0420BD1206801445018AC
:10416C0083421160DED118685B68014411605360B2
:10417C00D8E702D90C232B60D4E7206821188B4296
:10418C0001BF19685B680918216063605460C9E756
:10419C0038BD00BFC0000020F8B5CD1C25F00305CC
:1041AC0008350C2D38BF0C25002D064601DBA94225
:1041BC0003D90C2333600020F8BD00F07DF82149B1
:1041CC000A6814469CB9204F3B6823B921463046F7
:1041DC0000F062F838602946304600F05DF8431C68
:1041EC0023D10C233046336000F06CF8E3E72368EE
:1041FC005B1B17D40B2B03D923601C44256004E0F4
:10420C006368A2420CBF0B605360304600F05AF852
:10421C0004F10B00231D20F00700C21ACCD01B1A8E
:10422C00A350C9E722466468CCE7C41C24F00304FD
:10423C00A042E3D0211A304600F02EF80130DDD137
:10424C00CFE700BFC0000020C4000020F8B507462F
:10425C0014460E4621B91146BDE8F840FFF79CBF45
:10426C0022B9FFF74DFF25462846F8BD00F030F87F
:10427C00A0420FD221463846FFF78EFF0546002894
:10428C00F2D031462246FFF713FF31463846FFF78E
:10429C0037FFE9E73546E7E738B50023054D044617
:1042AC0008462B60FDF716FB431C02D12B6803B1AB
:1042BC00236038BD98050020014800F011B800BFFC
:1042CC00A0050020014800F00CB800BFA00500209C
:1042DC0051F8043C181F002BBCBF0B58C01870477A
:1042EC0070477047F8B500BFF8BC08BC9E467047D5
:0C42FC00F8B500BFF8BC08BC9E46704737
:1043080044454E2058414E48200000004D414E552E
:10431800414C204D4F44450044454E2056414E47A0
:104328002000000044454E20444F2020200000007B
:1043380044454E20444F20203A20000044454E205A
:1043480056414E473A20000044454E2058414E48B9
:104358003A20000044454E20444F20203A20202097
:104368000000000044454E20444F2020200000005B
:104378004D414E55414C204D4F44450044454E203B
:10438800444F20203A2020202000000044454E20A1
:1043980058414E483A2020202020000044454E2015
:1043A80058414E482000000044454E2056414E4793
:1043B8003A2020202000000044454E2056414E4718
:1043C8002000000020547261666669632053797387
:1043D80074656D0054696D653A2025303264730048
:1043E800000000000000000001020304060708099D
:1043F800000000000102030402030405060708097F
:104408000A0B0C0D0E0F10100102232D302B20006B
:10441800686C4C0065666745464700303132333476
:104428003536373839414243444546003031323316
:1044380034353637383961626364656600000000D8
:044448003101000836
:04444C000D01000856
:10445000000C0140000C0140000C0140000C014028
:104460000800200010000004050000000200000009
:104470000300000000127A0010000000010000009C
:1044800034000020000000000000000000000000D8
:10449000000000000000000000000000000000001C
:1044A000000000000000000000000000000000000C
:1044B00000000000000000000000000000000000FC
:1044C00000000000000000000000000000000000EC
:1044D00000000000000000000000000000000000DC
:0444E00000000000D8
:04000005080019FDD9
:00000001FF
